:040000003FEF0EF0D0
:1000080000C019F001C018F002C017F003C016F0C4
:1000180004C015F0F2A40BD0F2945C2A0F0E3B1426
:10002800D66E3CC000F0016A00C0D7FF4FD0F2A2E4
:1000380011D0F292010E8114016E000E000B026EB7
:10004800000E021802E1000E011801E1F3D7010EBB
:100058005B6E3CD0F0A01AD0F090020E8114036EB3
:10006800000E000B046E03C001F004C002F002325F
:100078000132029E02BC028E000E021802E1000E3E
:10008800011801E1EAD7010E5B6E20D0F0A21ED064
:10009800F092040E8114036E000E000B046E03C070
:1000A80001F004C002F002320132029E02BC028E4C
:1000B80002320132029E02BC028E000E021802E1D8
:1000C800000E011801E1E5D7010E5B6E19C000F0C2
:1000D80018C001F017C002F016C003F015C004F0F4
:0200E800110005
:0600EA00000000001200FE
:1000F0000F0E0C6E470E0D6E0D2EFED70C2EFCD77C
:06010000000000001200E7
:0A010600210E0D6E0D2EFED7120023
:1001100001013851000A02E1000E371902E1006ABC
:1001200060D037C1E9FF38C1EAFFEECF01F0EECF72
:1001300002F002500F0A02E1800E01183AE037C1C6
:10014000E9FF38C1EAFFEECF01F0EECF02F0025036
:100150000F0A02E1810E01182CE037C1E9FF38C116
:10016000EAFFEECF01F0EECF02F002500F0A02E1FB
:10017000820E01181EE037C1E9FF38C1EAFFEECF59
:1001800001F0EECF02F002500F0A02E1830E0118D7
:1001900010E037C1E9FF38C1EAFFEECF01F0EECF42
:1001A00002F002500F0A02E1840E011802E0006A18
:1001B00018D0020E3725E96E000E3821EA6E080EBF
:1001C000EE5C02E3006A0DD0030E3725E96E000EE7
:1001D0003821EA6E020EEE5C02E3006A02D0010EE4
:0401E000006E12009B
:1001E400010137BF02D0839E01D0838E37BD02D078
:1001F400839C01D0838C37BB02D0839A01D0838A3D
:1002040037B902D0839801D0838828B102D084847E
:1002140001D08494848267DF849237B702D0839EAE
:1002240001D0838E37B502D0839C01D0838C37B341
:1002340002D0839A01D0838A37B102D0839801D047
:10024400838828B102D0848401D0849484824BDFD3
:0E025400849228A102D04ADF01D053DF1200AD
:10026200086A080E0C6E003408360450085ED8B0D6
:0E02720002D00826D89000360C2EF5D71200C8
:04028000D59E1200F5
:0E0284000101289132C137F1ABDF2881120051
:06029200010E006E1200D7
:1002980032C137F133C138F137DF00C034F1000E15
:1002A800001802E1006A8CD032C1E9FF33C1EAFFCD
:1002B800EECF00F0EECF01F0120E0024E96E000E32
:1002C8000120EA6EEECF00F000C034F1030E3225B3
:1002D800E96E000E3321EA6EEE50000A16E1020EB6
:1002E8003225D96E000E3321DA6EDECF00F000C061
:1002F80001F0010E006E015004E000360090FF0F7F
:10030800FBD7001E005034173CD0030E3225E96E8F
:10031800000E3321EA6EEE50010A33E1020E322557
:10032800D96E000E3321DA6EDECF00F000C001F086
:10033800010E006E015004E000360090FF0FFBD75D
:100348000050341332C1E9FF33C1EAFFEECF01F0A8
:10035800EECF02F002500F0A02E1810E01180FE001
:1003680032C1E9FF33C1EAFFEECF01F0EECF02F070
:1003780002500F0A02E1800E011801E002D00F0EB0
:10038800C11232C1E9FF33C1EAFFEECF00F0EECF70
:1003980001F0120E0024E16E000E0120E26E34C15D
:1003A800E6FF32C1E9FF33C1EAFFEECF00F0EECF3E
:1003B80001F000C0E1FF01C0E2FFE66A010E006E35
:0203C800120021
:1003CA000B6A0A6A096A00500402F4CF09F0F3CFF3
:1003DA0008F001500502F4CF0BF0F3CF0AF00050F9
:1003EA000502F3500926F4500A22E86A0B2201504A
:1003FA000402F3500926F4500A22E86A0B2208C0C4
:10040A0000F009C001F00AC002F00BC003F01200AC
:06041A00F28EF28C1200CC
:1004200032C1E9FF33C1EAFFEECF01F0015000080D
:1004300002E3006A38D0010E01013225E96E000E98
:100440003321EA6EEE50000802E3006A2CD0020E5F
:100450003225016E000E3321026E0250000A02E1C5
:10046000000E011802E1006A1ED0120E3225016E44
:10047000000E3321026E0250000A02E1000E011844
:1004800002E1006A10D01E0E3225016E000E3321EB
:10049000026E0250000A02E1000E011802E1006A39
:0804A00002D0010E006E1200F3
:1004A80032C137F133C138F12FDE00C036F1000E0A
:1004B800001802E1006A42D03551000A02E1000E3C
:1004C800341902E1006A3AD032C1E9FF33C1EAFFC8
:1004D800EECF00F0EECF01F000C0E9FF01C0EAFF67
:1004E800EECF00F000C036F1020E3225D96E000EB4
:1004F8003321DA6EDECF00F000C002F0010E006E8C
:10050800000E016E025005E0003600900136FF0F24
:10051800FAD736510016000E01160050011007E0F8
:1005280034C1E1FF35C1E2FF010EE66E05D034C1EA
:0E053800E1FF35C1E2FFE66A010E006E12001F
:1005460010D0800E0101326F1AD0C00E326F17D054
:10055600940E326F14D0D40E326F11D0800E326FDB
:100566000ED001013251010AECE03251020AEDE0EF
:100576003251030AEDE03251040AEDE0EFD73305BC
:10058600006E3251002600C032F1288100C037F1DA
:0E05960026DE289134C137F122DE28811200C2
:1005A40032C137F133C138F1B1DD000E001802E178
:1005B400006A28D032C1E9FF33C1EAFFEECF02F06E
:1005C400EECF03F0020E3225D96E000E3321DA6E1F
:1005D400DECF00F0010E016E005004E00136019000
:1005E400FF0FFBD702C0E9FF03C0EAFFEECF00F024
:1005F4000150001202C0E1FF03C0E2FF00C0E6FFA9
:06060400010E006E120061
:10060A0032C137F133C138F17EDD000E001802E144
:10061A00006A2CD032C1E9FF33C1EAFFEECF02F003
:10062A00EECF03F0020E3225D96E000E3321DA6EB8
:10063A00DECF00F000C001F0010E006E015004E0B0
:10064A0000360090FF0FFBD7001C016E02C0E9FFC5
:10065A0003C0EAFFEECF00F00150001602C0E1FF2E
:0E066A0003C0E2FF00C0E6FF010E006E1200AA
:1006780029C137F12AC138F147DD00C02BF1000E3E
:10068800001802E1006A7FD029C1E9FF2AC1EAFF08
:10069800EECF00F0EECF01F000C0E9FF01C0EAFFA5
:1006A800EECF00F000C02BF1020E2925D96E000E06
:1006B8002A21DA6EDECF00F000C002F0010E006ED3
:1006C800000E016E025005E0003600900136FF0F63
:1006D800FAD72B510016000E0116005001102BE01E
:1006E80029C1E9FF2AC1EAFFEECF02F0EECF03F0FD
:1006F800020E2925D96E000E2A21DA6EDECF00F00F
:1007080000C001F0010E006E015004E000360090B8
:10071800FF0FFBD7001C016E02C0E9FF03C0EAFF10
:10072800EECF00F00150001602C0E1FF03C0E2FF67
:1007380000C0E6FF26D029C1E9FF2AC1EAFFEECFB3
:1007480002F0EECF03F0020E2925D96E000E2A2101
:10075800DA6EDECF00F0010E016E005004E00136C3
:100768000190FF0FFBD702C0E9FF03C0EAFFEECFFD
:1007780000F00150001202C0E1FF03C0E2FF00C018
:08078800E6FF010E006E1200F5
:10079000969296949598959A959C959E8492849419
:1007A000839E839C839A8398A3DCA2DCA1DC838A4A
:1007B000838884829ADC84929BDC848296DC849297
:1007C00097DC848292DC849293DC839884828DDC33
:1007D00084928EDC848289DC8492839A838E8482E4
:1007E00084DC849285DC839E838884827EDC849290
:1007F000839884827ADC84927BDC848276DC8492A7
:100800008388848272DC849273DC839884826DDCBA
:100810008492838E838C838A8388848266DC84922C
:0808200067DC010128811200D0
:10082800F8DD28D0F28863D0F08661D0F0885FD0F8
:10083800F2865DD0F28A5BD09D8059D09D8257D0D8
:10084800A08255D09D8453D09D8051D09D884FD093
:100858009D8A4DD09D864BD09D8C49D09D8E47D08A
:10086800A08445D0A08643D0A08841D0A08C3FD09A
:10087800A08E3DD001012951000AD4E02951010A76
:10088800D3E02951020AD2E02951030AD1E02951C3
:10089800040AD0E02951050ACFE02951060ACEE022
:1008A8002951070ACDE02951080ACCE02951090A43
:1008B800CBE029510A0ACAE029510B0AC9E029519B
:1008C8000C0AC8E029510D0AC7E029510E0AC6E0F2
:1008D80029510F0AC5E02951100AC4E02951110A0B
:1008E800C3E02951120AC2E02951130AC1E01200DB
:1008F80001012B6B29C132F12AC133F1C6DC00504A
:10090800000A02E1006AD0D0B7DC010E2925056E85
:10091800000E2A21066E25D02B93030E2925006E82
:10092800000E2A21016E00C0E9FF01C0EAFFEECFE8
:10093800D6FF00C0E9FF01C0EAFFEECF03F0EECF1B
:1009480004F004C000F0016A00C0D7FF18D02B8360
:10095800030E2925E96E000E2A21EA6EEECFD6FF96
:100968000ED005C0E9FF06C0EAFFEE50000AD4E049
:1009780005C0E9FF06C0EAFFEE50010AE8E029C118
:1009880001F02AC102F008D02B9B1BD02B8B2B998E
:1009980018D02B8B2B8915D001C0E9FF02C0EAFFC4
:1009A800EE50000AF1E001C0E9FF02C0EAFFEE5094
:1009B800010AECE001C0E9FF02C0EAFFEE50020ABA
:1009C800E8E0020E2925016E000E2A21026E29D0C8
:1009D8002B8766D02B97F80E2B1762D02B97F80E23
:1009E8002B172B815DD02B97F80E2B172B8358D004
:1009F8002B97F80E2B17030E2B1352D02B97F80EAC
:100A08002B172B854DD02B97070E2B132B9348D0E4
:100A18002B97070E2B132B9143D02B97070E2B13D5
:100A28003FD001C0E9FF02C0EAFFEE50000AD0E063
:100A380001C0E9FF02C0EAFFEE50010ACBE001C0A5
:100A4800E9FF02C0EAFFEE50020AC8E001C0E9FF70
:100A580002C0EAFFEE50030AC6E001C0E9FF02C087
:100A6800EAFFEE50040AC4E001C0E9FF02C0EAFF51
:100A7800EE50050AC3E001C0E9FF02C0EAFFEE50EC
:100A8800060AC1E001C0E9FF02C0EAFFEE50070A0A
:100A9800BFE001C0E9FF02C0EAFFEE50080ABDE06E
:0A0AA8002BC1D5FF010E006E1200F5
:100AB200010E0101326F060E336F020E2925E96E17
:100AC200000E2A21EA6EEECF00F00A0E046E31EC1F
:100AD20001F0300E0024346F35DD010E326F070E47
:100AE200336F020E2925E96E000E2A21EA6EEECF3F
:100AF20000F00A0E046E31EC01F008C000F0300E76
:100B02000024346F1FDD010E326F080E336F3A0E70
:100B1200346F18DD010E326F090E336F010E292575
:100B2200E96E000E2A21EA6EEECF00F00A0E046E84
:100B320031EC01F0300E0024346F04DD010E326F0F
:100B42000A0E336F010E2925E96E000E2A21EA6E84
:100B5200EECF00F00A0E046E31EC01F008C000F096
:100B6200300E0024346FEEDC010E326F0B0E336F49
:100B72003A0E346FE7DC010E326F0C0E336F29C16F
:100B8200E9FF2AC1EAFFEECF00F00A0E046E31EC53
:100B920001F0300E0024346FD5DC010E326F0D0EE1
:100BA200336F29C1E9FF2AC1EAFFEECF00F00A0E36
:100BB200046E31EC01F008C000F0300E0024346FF6
:040BC200C1DC120080
:100BC60029C132F12AC133F128DC0050000A02E1C2
:100BD600006AA7D029C1E9FF2AC1EAFFEECF01F0DA
:100BE600010E01012925D96E000E2A21DA6EDE508A
:100BF600015C07E329C1E9FF2AC1EAFFEECF2CF128
:100C060008D0010E2925E96E000E2A21EA6EEECFE4
:100C16002CF12B6B2C512B5DD8B081D0010E2925E0
:100C2600D96E000E2A21DA6EDE502B5D37E2120EE7
:100C36002925036E000E2A21046E2BC100F0000E3A
:100C4600016E0036009001360036009001360350E2
:100C5600002604500122030E0024E16E000E01203E
:100C6600E26E010EE66E120E2925326F000E2A2163
:100C7600336F2BC100F0000E016E00360090013676
:100C860000360090013600503227015033234CECD9
:100C960001F00050000A02E1006A43D029C1E9FFD1
:100CA6002AC1EAFFEECF01F001502B5D36E2020EBB
:100CB6002925036E000E2A21046E2BC100F0000EBA
:100CC600016E003600900136003600900136035062
:100CD600002604500122030E0024E16E000E0120BE
:100CE600E26EE66A020E2925326F000E2A21336F64
:100CF6002BC100F0000E016E003600900136003662
:100D06000090013600503227015033234CEC01F09D
:100D16000050000A02E1006A04D02B2B7BD7010E9B
:040D2600006E120049
:100D2A0029C132F12AC133F110EC02F00050000A55
:100D3A0002E1006AFDD001012E6B29C1E9FF2AC137
:100D4A00EAFFEECF01F001502E5DD8B0EAD02F6B4A
:100D5A0029C1E9FF2AC1EAFFEECF01F001502F5D58
:100D6A001CE2020E2925326F000E2A21336F2FC191
:100D7A0000F0000E016E0036009001360036009039
:100D8A000136005032270150332307DC0050000A95
:100D9A0002E1006ACDD02F2BDBD7020E2925326F54
:100DAA00000E2A21336F2EC100F0000E016E0036AC
:100DBA00009001360036009001360050322701506B
:100DCA0033231EDC0050000A02E1006AB1D02F6B07
:100DDA00010E2925D96E000E2A21DA6EDE502F5D0A
:100DEA00D8B09DD0120E2925326F000E2A21336FFA
:100DFA002FC100F0000E016E003600900136003659
:100E0A000090013600503227015033232D0E346FE3
:100E1A00010E356F54EC02F00050000A02E1006A3C
:100E2A0087D02D51000AD8A478D0120E2925046E35
:100E3A00000E2A21056E2FC100F0000E016E003649
:100E4A000090013600360090013600500424026EEC
:100E5A0001500520036E02C0E9FF03C0EAFFEECF8E
:100E6A0000F0EECF01F000C0E9FF01C0EAFFEECFCB
:100E7A0004F0020E0224E96E000E0320EA6EEECFA1
:100E8A0005F005C002F0010E006E000E016E025060
:100E9A0005E0003600900136FF0FFAD7005004141F
:100EAA00036E000E0114046E05C000F003C001F0C9
:100EBA0004C002F0005007E002320132029E02BC76
:100ECA00028EFF0FF8D7000E021802E1000E011879
:100EDA0001E1ABD71E0E2925306F000E2A21316F92
:100EEA00030E006E000E016E2EC104F0000E056E98
:100EFA00E5EC01F030510026315101222F51002436
:100F0A00E96E000E0120EA6E2BC1E1FF2CC1E2FF5F
:100F1A00EECFE6FF010E006E0BD02F2B59D72E2BEA
:100F2A000CD72BC1E1FF2CC1E2FFE66A010E006E6D
:020F3A001200A3
:100F3C0010D0800E0101296F1AD0C00E296F17D066
:100F4C00940E296F14D0D40E296F11D0800E296FF6
:100F5C000ED001012951010AECE02951020AEDE001
:100F6C002951030AEDE02951040AEDE0EFD72A05D7
:100F7C00006E2951002600C029F100C037F1F2ECB7
:100F8C0000F028912D6B2D512B25E96E000E2C2194
:100F9C00EA6EEE520CE02D512B25E96E000E2C2141
:100FAC00EA6EEECF32F142EC01F02D2BECD728811A
:020FBC00120021
:100FBE0028D0F29863D0F09661D0F0985FD0F29678
:100FCE005DD0F29A5BD09D9059D09D9257D0A09251
:100FDE0055D09D9453D09D9051D09D984FD09D9AB1
:100FEE004DD09D964BD09D9C49D09D9E47D0A094B0
:100FFE0045D0A09643D0A09841D0A09C3FD0A09EB3
:10100E003DD001012951000AD4E02951010AD3E053
:10101E002951020AD2E02951030AD1E02951040ACA
:10102E00D0E02951050ACFE02951060ACEE0295118
:10103E00070ACDE02951080ACCE02951090ACBE074
:10104E0029510A0ACAE029510B0AC9E029510C0A92
:10105E00C8E029510D0AC7E029510E0AC6E02951F0
:10106E000F0AC5E02951100AC4E02951110AC3E044
:0E107E002951120AC2E02951130AC1E01200E2
:04108C00D58E1200EB
:10109000010E0101376FF2EC00F040EC01F0040E9C
:1010A000296F8DDF5C6A0101296B14EC04F0010EDD
:1010B0000101296F14EC04F0020E0101296F14ECF8
:0410C00004F0120026
:1010C4000900F5CFE6FF0006FBE10106F9E1120095
:1010D400290E0101326F000E336F4CEC01F01A0E31
:1010E400326F000E336F4CEC01F0250E326F000EA0
:1010F400336F4CEC01F0570E326F000E336F4CEC33
:1011040001F0870E326F000E336F4CEC01F0DB0EF2
:10111400326F000E336F4CEC01F0950E326F000EFF
:10112400336F4CEC01F0DF0E326F000E336F4CEC7A
:1011340001F0530E326F000E336F4CEC01F0530E7E
:10114400326F000E336FD2EC02F05D0E296F000E89
:101154002A6F37DDC8EC03F00C0E376FF2EC00F0A9
:10116400380E296F000E2A6F7CEC04F0040E296FF0
:0611740014EC04F012006F
:10117A00140E5C5C08E3530E0101296F000E2A6FFE
:10118A003CEC03F05C6A0101570E326F000E336FBC
:10119A00270E346F010E356F54EC02F02751010A05
:1011AA000AE1030E296F0B0E2A6F8B0E2B6F000EAE
:1011BA002C6FBFDE28D0030E296F0B0E2A6F900EFC
:1011CA002B6F000E2C6FB5DE5F0E326F000E336F81
:1011DA0005EC03F0630E326F000E336F05EC03F07B
:1011EA00670E326F000E336F05EC03F06B0E326F31
:1011FA00000E336F05EC03F0530E326F000E336F9F
:10120A00D2EC02F05B6A870E326F000E336F270E44
:10121A00346F010E356F54EC02F02751010A0AE1CE
:10122A00030E296F020E2A6F4E0E2B6F000E2C6FC3
:10123A0080DE28D0030E296F020E2A6F210E2B6F33
:10124A00000E2C6F76DE5F0E326F000E336F05ECE8
:10125A0003F0630E326F000E336F05EC03F0670E76
:10126A00326F000E336F05EC03F06B0E326F000E17
:10127A00336F05EC03F0530E326F000E336FD2EC6E
:10128A0002F05B6A250E326F000E336F270E346F41
:10129A00010E356F54EC02F02751000A4EE125C0C9
:1012AA00E9FF26C0EAFFEECF03F027C002F0010EE5
:1012BA00006E000E016E025005E000360090013605
:1012CA00FF0FFAD7000E046E0050031601500416E1
:1012DA0027C000F003C001F004C002F0005007E08C
:1012EA0002320132029E02BC028EFF0FF8D7000EB4
:1012FA00021802E1000E011801E1D1D75F0E326F28
:10130A00000E336F05EC03F0630E326F000E336F7D
:10131A0005EC03F0670E326F000E336F05EC03F035
:10132A006B0E326F000E336F05EC03F0530E326F03
:10133A00000E336FD2EC02F05B6A1A0E326F000EA7
:10134A00336F270E346F010E356F54EC02F02751BC
:10135A00000A4FE11AC0E9FF1BC0EAFFEECF03F013
:10136A001CC002F0010E006E000E016E025005E074
:10137A00003600900136FF0FFAD7000E046E0050B7
:10138A000316015004161CC000F003C001F004C08B
:10139A0002F0005007E002320132029E02BC028EC5
:1013AA00FF0FF8D7000E021802E1000E011801E142
:1013BA00D1D701015F0E326F000E336F05EC03F0D7
:1013CA00630E326F000E336F05EC03F0670E326F57
:1013DA00000E336F05EC03F06B0E326F000E336FA5
:1013EA0005EC03F0530E326F000E336FD2EC02F0AD
:0413FA005B6A120018
:1013FE001E0E0101296F000E2A6F59EC05F0290E01
:10140E00326F000E336F270E346F010E356F54ECB2
:10141E0002F02751000AD8A4A7D029C0E9FF2AC09C
:10142E00EAFFEECF03F02BC002F0010E006E000EAD
:10143E00016E025005E0003600900136FF0FFAD71C
:10144E00000E046E00500316015004162BC000F05F
:10145E0003C001F004C002F0005007E00232013276
:10146E00029E02BC028EFF0FF8D7000E021802E198
:10147E00000E011801E1D1D72050000A10E11F50D3
:10148E00000A0DE11E50000A0AE1040E296F030E38
:10149E002A6F3D0E2B6F000E2C6F49DD65D0570E57
:1014AE00326F000E336F270E346F010E356F54EC12
:1014BE0002F02751010A4FE1870E326F000E336F93
:1014CE00270E346F010E356F54EC02F02751010ACE
:1014DE0038E1020E296F0B0E2A6F480E2B6F000E8D
:1014EE002C6F25DD040E296F030E2A6F2D0E2B6F28
:1014FE00000E2C6F1CDD5C6A40EC01F00F0E3B14ED
:10150E00D66E3CC000F0016A00C0D7FFB8DD040EF5
:10151E00296F14EC04F0950E0101326F000E336F3B
:10152E00D2EC02F0DB0E326F000E336FD2EC02F013
:10153E00DF0E326F000E336FD2EC02F0030E5B6ED5
:10154E0009D0040E296F030E2A6FC50E2B6F000EE5
:10155E002C6FEDDC09D0040E296F030E2A6FD00E0E
:10156E002B6F000E2C6FE3DC1A0E326F000E336FF2
:10157E00270E346F010E356F54EC02F02751000A1E
:10158E0032E11AC0E9FF1BC0EAFFEECF03F01CC028
:10159E0002F0010E006E000E016E025005E00036E4
:1015AE0000900136FF0FFAD7000E046E005003169E
:1015BE00015004161CC000F003C001F004C002F07C
:1015CE00005007E002320132029E02BC028EFF0F73
:1015DE00F8D7000E021802E1000E011801E1D1D772
:1015EE00206A1F6A1E6A570E326F000E336F270E67
:1015FE00346F010E356F54EC02F02751010A0AE1E7
:10160E00030E296F0B0E2A6FE30E2B6F000E2C6F3D
:10161E008EDC09D0030E296F0B0E2A6FED0E2B6F89
:10162E00000E2C6F84DC870E326F000E336F270E88
:10163E00346F010E356F54EC02F02751010A0AE1A6
:10164E00030E296F020E2A6FF20E2B6F000E2C6FF7
:10165E006EDC09D0030E296F020E2A6FE80E2B6F77
:10166E00000E2C6F64DC5D0E296F000E2A6FEC0EDF
:10167E002B6F000E2C6F95EC06F00001EC51000A5A
:10168E00D8B4AAD0300EEC5DD8A093D0EC51390866
:10169E00D8A08FD07BD00A0E046E20C000F031ECA3
:1016AE0001F008C000F0300EEC5D016E0A0E010272
:1016BE00F3CF01F00150002600C020F079D00A0EC1
:1016CE00046E20C000F031EC01F008C000F00050B4
:1016DE00205C016E300EEC5D006E0150002600C0E5
:1016EE0020F066D0360EEC5D13E20A0E046E1FC0BB
:1016FE0000F031EC01F008C000F0300EEC5D016E30
:10170E000A0E0102F3CF01F00150002600C01FF0B7
:10171E004FD00A0E046E1FC000F031EC01F008C06D
:10172E0000F000501F5C016E300EEC5D006E01503B
:10173E00002600C01FF03CD0360EEC5D13E20A0E00
:10174E00046E1EC000F031EC01F008C000F0300E47
:10175E00EC5D016E0A0E0102F3CF01F0015000267E
:10176E0000C01EF025D00A0E046E1EC000F031EC33
:10177E0001F008C000F000501E5C016E300EEC5DF2
:10178E00006E0150002600C01EF012D0C451000A97
:10179E0082E0C451010A93E0C451020AA3E0C4518D
:1017AE00030AB7E0C451040AC7E0C451050ADBE0DE
:1017BE0013D0EC512A0A08E1C451000A03E1050EC8
:1017CE00C46F01D0C40708D0EC51230A05E1C42B25
:1017DE00C4510508D8A0C46B250E0101326F000E4E
:1017EE00336F270E346F010E356F54EC02F0275114
:1017FE00000A4FE125C0E9FF26C0EAFFEECF03F055
:10180E0027C002F0010E006E000E016E025005E0C0
:10181E00003600900136FF0FFAD7000E046E00500E
:10182E0003160150041627C000F003C001F004C0D7
:10183E0002F0005007E002320132029E02BC028E1C
:10184E00FF0FF8D7000E021802E1000E011801E199
:10185E00D1D701015F0E326F000E336F05EC03F02E
:10186E00630E326F000E336F05EC03F0670E326FAE
:10187E00000E336F05EC03F06B0E326F000E336FFC
:10188E0005EC03F0530E326F000E336FD2EC02F004
:04189E005B6A12006F
:1018A20046EC08F0040E0101296F14EC04F001016A
:1018B200296BDFEC07F0010E0101296FDFEC07F065
:1018C200020E0101296FDFEC07F0010E0101296F01
:1018D200010E2A6F080E2B6F010E2C6F9EEC07F083
:1018E200020E296F010E2A6FFD0E2B6F000E2C6F58
:1018F2009EEC07F0030E296FFD0E2A6F150E2B6F5B
:10190200010E2C6F9EEC07F0040E296FFD0E2A6F5C
:101912000E0E2B6F010E2C6F9EEC07F0020E296F3C
:101922000B0E2A6FF70E2B6F000E2C6F9EEC07F03A
:06193200020E5B6E1200C4
:10193800280E5C5C4DE35C6A1E50000805E21E043C
:10194800006E00C01EF016D01E50000A13E13B0EB8
:101958001E6E1F50000805E21F04006E00C01FF035
:1019680009D03B0E1F6E2050000804E22004006ED0
:1019780000C020F01E50000A2BE11F50000A28E189
:101988002050000A25E1020E0101296F0B0E2A6F73
:10199800A30E2B6F000E2C6F9EEC07F0950E326F86
:1019A800000E336F05EC03F0DB0E326F000E336F61
:1019B80005EC03F0DF0E326F000E336F05EC03F019
:1019C800530E326F000E336F05EC03F0040E5B6E9E
:1019D80001011E0E296F000E2A6F59EC05F01A0E30
:1019E800326F000E336F270E346F010E356F54ECD3
:1019F80002F02751000A4EE11AC0E9FF1BC0EAFFB6
:101A0800EECF03F01CC002F0010E006E000E016E56
:101A1800025005E0003600900136FF0FFAD7000E9D
:101A2800046E00500316015004161CC000F003C0D9
:101A380001F004C002F0005007E002320132029EB9
:101A480002BC028EFF0FF8D7000E021802E1000E4A
:101A5800011801E1D1D70101020E296F0B0E2A6F7F
:101A6800A90E2B6F000E2C6F9EEC07F0950E326FAF
:101A7800000E336F05EC03F0DB0E326F000E336F90
:101A880005EC03F0DF0E326F000E336F05EC03F048
:101A9800020E5B6E570E326F000E336F270E346FD7
:101AA800010E356F54EC02F02751010A0BE1030EC9
:101AB800296F0B0E2A6F990E2B6F000E2C6F9EEC60
:101AC80007F028D0030E296F0B0E2A6F9E0E2B6F7E
:101AD800000E2C6F9EEC07F0020E296F0B0E2A6F7A
:101AE800AF0E2B6F000E2C6F9EEC07F0950E326F29
:101AF800000E336F05EC03F0DB0E326F000E336F10
:101B080005EC03F0DF0E326F000E336F05EC03F0C7
:101B1800020E5B6E870E326F000E336F270E346F26
:101B2800010E356F54EC02F02751010A0BE1030E48
:101B3800296F020E2A6FBB0E2B6F000E2C6F9EECC6
:101B480007F028D0030E296F020E2A6FC00E2B6FE4
:101B5800000E2C6F9EEC07F0020E296F0B0E2A6FF9
:101B6800B50E2B6F000E2C6F9EEC07F0950E326FA2
:101B7800000E336F05EC03F0DB0E326F000E336F8F
:101B880005EC03F0DF0E326F000E336F05EC03F047
:101B9800020E5B6E250E326F000E336F270E346F08
:101BA800010E356F54EC02F02751000A63E125C09D
:101BB800E9FF26C0EAFFEECF03F027C002F0010ECE
:101BC800006E000E016E025005E0003600900136EE
:101BD800FF0FFAD7000E046E0050031601500416CA
:101BE80027C000F003C001F004C002F0005007E075
:101BF80002320132029E02BC028EFF0FF8D7000E9D
:101C0800021802E1000E011801E1D1D71E6A1F6A0D
:101C1800206A950E326F000E336F05EC03F0DB0E71
:101C2800326F000E336F05EC03F0DF0E326F000EDB
:101C3800336F05EC03F05F0E326F000E336F05EC67
:101C480003F0630E326F000E336F05EC03F0670E7E
:101C5800326F000E336F05EC03F06B0E326F000E1F
:101C6800336F05EC03F0530E326F000E336FD2EC76
:061C780002F05B6A12009D
:101C7E00EDEC0EF06AEC08F011D048EC08F0030021
:101C8E001CD008DE1AD0FFEC09F0030016D04DDE92
:101C9E00030013D0BDEC08F003000FD05B50000A18
:101CAE00ECE05B50010AEDE05B50020AECE05B50A9
:0E1CBE00030AEDE05B50040AEDE0DED7FFD72D
:101DDA0010EE1AF00D0E006E020E016ECC0EF66EAB
:0E1DEA001C0EF76E000EF86E62EC08F0120090
:041CCC00810F04017F
:031CD00000000011
:041CD3004E4F200050
:041CD700810F050173
:041CDB00810F030171
:0B1CDF002020202020202020202000BA
:051CEA00000004CBF333
:0B1CEF0054696D654E6F7453657400FE
:061CFA0052756E2020006F
:051D00004F4B20200004
:041D0500820F010048
:041D0900800F030143
:011D0D0000D5
:011D0E0000D4
:101D0F000403830F0300830F0200830F0100830F6F
:101D1F000000810F0001810F0101810F020131329B
:0A1D2F00333435363738392A3023B3
:041D3900800F020114
:051D3D004F4B202000C7
:051D42004E4F202000BF
:041D4700810F060002
:051D4B004F4B202000B9
:051D50004E4F202000B1
:061D5500446F6E652000E2
:061D5B00456469742000DC
:061D6100456469742000D6
:061D6700456469742000D0
:051D6D004F4B20200097
:041D72004E4F2000B0
:011D7600006C
:0B1D7700436C6F736520446F6F7200B7
:0B1D8200507574466F6F64496E2000BE
:041D8D00810F0700BB
:041D9100820F0200BB
:051D95004F4B2020006F
:041D9A004E4F200088
:011D9E000044
:051D9F004E4F20200062
:051DA4004F4B20200060
:061DA9004564697420008E
:0B1DAF004D6963726F776176653A0042
:061DBA0054696D653A005A
:071DC0004572726F723A00D8
:101DC700446F6F723A20202020466F6F643A2020BC
:021DD7002000EA
:020000040030CA
:0D000100071F1EFF8181FF0FC00FE00F40A1
:00000001FF
